{
  "_format": "hh-sol-artifact-1",
  "contractName": "MoonNFT",
  "sourceName": "contracts/MoonNFT.sol",
  "abi": [
    {
      "inputs": [
        {
          "internalType": "address",
          "name": "initialOwner",
          "type": "address"
        },
        {
          "internalType": "uint256",
          "name": "_initialMintPrice",
          "type": "uint256"
        },
        {
          "internalType": "uint256",
          "name": "_initialMaxSupply",
          "type": "uint256"
        }
      ],
      "stateMutability": "nonpayable",
      "type": "constructor"
    },
    {
      "inputs": [],
      "name": "AlreadyMinted",
      "type": "error"
    },
    {
      "inputs": [],
      "name": "EmptyMetadataURI",
      "type": "error"
    },
    {
      "inputs": [],
      "name": "InsufficientPayment",
      "type": "error"
    },
    {
      "inputs": [],
      "name": "InvalidMaxSupply",
      "type": "error"
    },
    {
      "inputs": [],
      "name": "InvalidRecipient",
      "type": "error"
    },
    {
      "inputs": [],
      "name": "MaxSupplyExceeded",
      "type": "error"
    },
    {
      "anonymous": false,
      "inputs": [
        {
          "indexed": true,
          "internalType": "address",
          "name": "owner",
          "type": "address"
        },
        {
          "indexed": true,
          "internalType": "address",
          "name": "approved",
          "type": "address"
        },
        {
          "indexed": true,
          "internalType": "uint256",
          "name": "tokenId",
          "type": "uint256"
        }
      ],
      "name": "Approval",
      "type": "event"
    },
    {
      "anonymous": false,
      "inputs": [
        {
          "indexed": true,
          "internalType": "address",
          "name": "owner",
          "type": "address"
        },
        {
          "indexed": true,
          "internalType": "address",
          "name": "operator",
          "type": "address"
        },
        {
          "indexed": false,
          "internalType": "bool",
          "name": "approved",
          "type": "bool"
        }
      ],
      "name": "ApprovalForAll",
      "type": "event"
    },
    {
      "anonymous": false,
      "inputs": [
        {
          "indexed": false,
          "internalType": "string",
          "name": "newContractURI",
          "type": "string"
        }
      ],
      "name": "ContractURIUpdated",
      "type": "event"
    },
    {
      "anonymous": false,
      "inputs": [
        {
          "indexed": true,
          "internalType": "address",
          "name": "receiver",
          "type": "address"
        },
        {
          "indexed": false,
          "internalType": "uint96",
          "name": "feeNumerator",
          "type": "uint96"
        }
      ],
      "name": "DefaultRoyaltySet",
      "type": "event"
    },
    {
      "anonymous": false,
      "inputs": [
        {
          "indexed": true,
          "internalType": "address",
          "name": "owner",
          "type": "address"
        },
        {
          "indexed": false,
          "internalType": "uint256",
          "name": "amount",
          "type": "uint256"
        }
      ],
      "name": "FundsWithdrawn",
      "type": "event"
    },
    {
      "anonymous": false,
      "inputs": [
        {
          "indexed": false,
          "internalType": "uint256",
          "name": "newMaxSupply",
          "type": "uint256"
        }
      ],
      "name": "MaxSupplyUpdated",
      "type": "event"
    },
    {
      "anonymous": false,
      "inputs": [
        {
          "indexed": false,
          "internalType": "uint256",
          "name": "newPrice",
          "type": "uint256"
        }
      ],
      "name": "MintPriceUpdated",
      "type": "event"
    },
    {
      "anonymous": false,
      "inputs": [
        {
          "indexed": true,
          "internalType": "address",
          "name": "minter",
          "type": "address"
        },
        {
          "indexed": true,
          "internalType": "uint256",
          "name": "tokenId",
          "type": "uint256"
        },
        {
          "indexed": false,
          "internalType": "string",
          "name": "tokenURI",
          "type": "string"
        }
      ],
      "name": "NFTMinted",
      "type": "event"
    },
    {
      "anonymous": false,
      "inputs": [
        {
          "indexed": true,
          "internalType": "address",
          "name": "previousOwner",
          "type": "address"
        },
        {
          "indexed": true,
          "internalType": "address",
          "name": "newOwner",
          "type": "address"
        }
      ],
      "name": "OwnershipTransferred",
      "type": "event"
    },
    {
      "anonymous": false,
      "inputs": [
        {
          "indexed": true,
          "internalType": "address",
          "name": "from",
          "type": "address"
        },
        {
          "indexed": true,
          "internalType": "address",
          "name": "to",
          "type": "address"
        },
        {
          "indexed": true,
          "internalType": "uint256",
          "name": "tokenId",
          "type": "uint256"
        }
      ],
      "name": "Transfer",
      "type": "event"
    },
    {
      "inputs": [],
      "name": "DEFAULT_ROYALTY_BPS",
      "outputs": [
        {
          "internalType": "uint96",
          "name": "",
          "type": "uint96"
        }
      ],
      "stateMutability": "view",
      "type": "function"
    },
    {
      "inputs": [
        {
          "internalType": "address",
          "name": "to",
          "type": "address"
        },
        {
          "internalType": "uint256",
          "name": "tokenId",
          "type": "uint256"
        }
      ],
      "name": "approve",
      "outputs": [],
      "stateMutability": "nonpayable",
      "type": "function"
    },
    {
      "inputs": [
        {
          "internalType": "address",
          "name": "owner",
          "type": "address"
        }
      ],
      "name": "balanceOf",
      "outputs": [
        {
          "internalType": "uint256",
          "name": "",
          "type": "uint256"
        }
      ],
      "stateMutability": "view",
      "type": "function"
    },
    {
      "inputs": [],
      "name": "contractURI",
      "outputs": [
        {
          "internalType": "string",
          "name": "",
          "type": "string"
        }
      ],
      "stateMutability": "view",
      "type": "function"
    },
    {
      "inputs": [
        {
          "internalType": "uint256",
          "name": "tokenId",
          "type": "uint256"
        }
      ],
      "name": "getApproved",
      "outputs": [
        {
          "internalType": "address",
          "name": "",
          "type": "address"
        }
      ],
      "stateMutability": "view",
      "type": "function"
    },
    {
      "inputs": [],
      "name": "getBalance",
      "outputs": [
        {
          "internalType": "uint256",
          "name": "",
          "type": "uint256"
        }
      ],
      "stateMutability": "view",
      "type": "function"
    },
    {
      "inputs": [
        {
          "internalType": "address",
          "name": "account",
          "type": "address"
        }
      ],
      "name": "hasMinted",
      "outputs": [
        {
          "internalType": "bool",
          "name": "",
          "type": "bool"
        }
      ],
      "stateMutability": "view",
      "type": "function"
    },
    {
      "inputs": [
        {
          "internalType": "address",
          "name": "owner",
          "type": "address"
        },
        {
          "internalType": "address",
          "name": "operator",
          "type": "address"
        }
      ],
      "name": "isApprovedForAll",
      "outputs": [
        {
          "internalType": "bool",
          "name": "",
          "type": "bool"
        }
      ],
      "stateMutability": "view",
      "type": "function"
    },
    {
      "inputs": [],
      "name": "maxSupply",
      "outputs": [
        {
          "internalType": "uint256",
          "name": "",
          "type": "uint256"
        }
      ],
      "stateMutability": "view",
      "type": "function"
    },
    {
      "inputs": [
        {
          "internalType": "address",
          "name": "recipient",
          "type": "address"
        },
        {
          "internalType": "string",
          "name": "metadataURI",
          "type": "string"
        }
      ],
      "name": "mint",
      "outputs": [
        {
          "internalType": "uint256",
          "name": "",
          "type": "uint256"
        }
      ],
      "stateMutability": "payable",
      "type": "function"
    },
    {
      "inputs": [
        {
          "internalType": "address",
          "name": "",
          "type": "address"
        }
      ],
      "name": "mintCount",
      "outputs": [
        {
          "internalType": "uint256",
          "name": "",
          "type": "uint256"
        }
      ],
      "stateMutability": "view",
      "type": "function"
    },
    {
      "inputs": [],
      "name": "mintPrice",
      "outputs": [
        {
          "internalType": "uint256",
          "name": "",
          "type": "uint256"
        }
      ],
      "stateMutability": "view",
      "type": "function"
    },
    {
      "inputs": [],
      "name": "name",
      "outputs": [
        {
          "internalType": "string",
          "name": "",
          "type": "string"
        }
      ],
      "stateMutability": "view",
      "type": "function"
    },
    {
      "inputs": [],
      "name": "owner",
      "outputs": [
        {
          "internalType": "address",
          "name": "",
          "type": "address"
        }
      ],
      "stateMutability": "view",
      "type": "function"
    },
    {
      "inputs": [
        {
          "internalType": "uint256",
          "name": "tokenId",
          "type": "uint256"
        }
      ],
      "name": "ownerOf",
      "outputs": [
        {
          "internalType": "address",
          "name": "",
          "type": "address"
        }
      ],
      "stateMutability": "view",
      "type": "function"
    },
    {
      "inputs": [],
      "name": "renounceOwnership",
      "outputs": [],
      "stateMutability": "nonpayable",
      "type": "function"
    },
    {
      "inputs": [
        {
          "internalType": "uint256",
          "name": "tokenId",
          "type": "uint256"
        },
        {
          "internalType": "uint256",
          "name": "salePrice",
          "type": "uint256"
        }
      ],
      "name": "royaltyInfo",
      "outputs": [
        {
          "internalType": "address",
          "name": "",
          "type": "address"
        },
        {
          "internalType": "uint256",
          "name": "",
          "type": "uint256"
        }
      ],
      "stateMutability": "view",
      "type": "function"
    },
    {
      "inputs": [
        {
          "internalType": "address",
          "name": "from",
          "type": "address"
        },
        {
          "internalType": "address",
          "name": "to",
          "type": "address"
        },
        {
          "internalType": "uint256",
          "name": "tokenId",
          "type": "uint256"
        }
      ],
      "name": "safeTransferFrom",
      "outputs": [],
      "stateMutability": "nonpayable",
      "type": "function"
    },
    {
      "inputs": [
        {
          "internalType": "address",
          "name": "from",
          "type": "address"
        },
        {
          "internalType": "address",
          "name": "to",
          "type": "address"
        },
        {
          "internalType": "uint256",
          "name": "tokenId",
          "type": "uint256"
        },
        {
          "internalType": "bytes",
          "name": "data",
          "type": "bytes"
        }
      ],
      "name": "safeTransferFrom",
      "outputs": [],
      "stateMutability": "nonpayable",
      "type": "function"
    },
    {
      "inputs": [
        {
          "internalType": "address",
          "name": "operator",
          "type": "address"
        },
        {
          "internalType": "bool",
          "name": "approved",
          "type": "bool"
        }
      ],
      "name": "setApprovalForAll",
      "outputs": [],
      "stateMutability": "nonpayable",
      "type": "function"
    },
    {
      "inputs": [
        {
          "internalType": "string",
          "name": "newContractURI",
          "type": "string"
        }
      ],
      "name": "setContractURI",
      "outputs": [],
      "stateMutability": "nonpayable",
      "type": "function"
    },
    {
      "inputs": [
        {
          "internalType": "address",
          "name": "receiver",
          "type": "address"
        },
        {
          "internalType": "uint96",
          "name": "feeNumerator",
          "type": "uint96"
        }
      ],
      "name": "setDefaultRoyalty",
      "outputs": [],
      "stateMutability": "nonpayable",
      "type": "function"
    },
    {
      "inputs": [
        {
          "internalType": "uint256",
          "name": "newMaxSupply",
          "type": "uint256"
        }
      ],
      "name": "setMaxSupply",
      "outputs": [],
      "stateMutability": "nonpayable",
      "type": "function"
    },
    {
      "inputs": [
        {
          "internalType": "uint256",
          "name": "newPrice",
          "type": "uint256"
        }
      ],
      "name": "setMintPrice",
      "outputs": [],
      "stateMutability": "nonpayable",
      "type": "function"
    },
    {
      "inputs": [
        {
          "internalType": "bytes4",
          "name": "interfaceId",
          "type": "bytes4"
        }
      ],
      "name": "supportsInterface",
      "outputs": [
        {
          "internalType": "bool",
          "name": "",
          "type": "bool"
        }
      ],
      "stateMutability": "view",
      "type": "function"
    },
    {
      "inputs": [],
      "name": "symbol",
      "outputs": [
        {
          "internalType": "string",
          "name": "",
          "type": "string"
        }
      ],
      "stateMutability": "view",
      "type": "function"
    },
    {
      "inputs": [
        {
          "internalType": "uint256",
          "name": "index",
          "type": "uint256"
        }
      ],
      "name": "tokenByIndex",
      "outputs": [
        {
          "internalType": "uint256",
          "name": "",
          "type": "uint256"
        }
      ],
      "stateMutability": "view",
      "type": "function"
    },
    {
      "inputs": [
        {
          "internalType": "address",
          "name": "owner",
          "type": "address"
        },
        {
          "internalType": "uint256",
          "name": "index",
          "type": "uint256"
        }
      ],
      "name": "tokenOfOwnerByIndex",
      "outputs": [
        {
          "internalType": "uint256",
          "name": "",
          "type": "uint256"
        }
      ],
      "stateMutability": "view",
      "type": "function"
    },
    {
      "inputs": [
        {
          "internalType": "uint256",
          "name": "tokenId",
          "type": "uint256"
        }
      ],
      "name": "tokenURI",
      "outputs": [
        {
          "internalType": "string",
          "name": "",
          "type": "string"
        }
      ],
      "stateMutability": "view",
      "type": "function"
    },
    {
      "inputs": [],
      "name": "totalSupply",
      "outputs": [
        {
          "internalType": "uint256",
          "name": "",
          "type": "uint256"
        }
      ],
      "stateMutability": "view",
      "type": "function"
    },
    {
      "inputs": [
        {
          "internalType": "address",
          "name": "from",
          "type": "address"
        },
        {
          "internalType": "address",
          "name": "to",
          "type": "address"
        },
        {
          "internalType": "uint256",
          "name": "tokenId",
          "type": "uint256"
        }
      ],
      "name": "transferFrom",
      "outputs": [],
      "stateMutability": "nonpayable",
      "type": "function"
    },
    {
      "inputs": [
        {
          "internalType": "address",
          "name": "newOwner",
          "type": "address"
        }
      ],
      "name": "transferOwnership",
      "outputs": [],
      "stateMutability": "nonpayable",
      "type": "function"
    },
    {
      "inputs": [],
      "name": "withdraw",
      "outputs": [],
      "stateMutability": "nonpayable",
      "type": "function"
    }
  ],
  "bytecode": "0x60806040523480156200001157600080fd5b5060405162005268380380620052688339818101604052810190620000379190620005ef565b6040518060400160405280600481526020017f4d4f4f4e000000000000000000000000000000000000000000000000000000008152506040518060400160405280600481526020017f4d4f4f4e000000000000000000000000000000000000000000000000000000008152508160029081620000b49190620008bb565b508060039081620000c69190620008bb565b505050620000e9620000dd6200017f60201b60201c565b6200018760201b60201c565b620000fa836200024d60201b60201c565b6001600d8190555081600e8190555080600f8190555062000124836101f4620002e360201b60201c565b8273ffffffffffffffffffffffffffffffffffffffff167f8a8bae378cb731c5c40b632330c6836c2f916f48edb967699c86736f9a6a76ef6101f46040516200016e9190620009cb565b60405180910390a250505062000c0d565b600033905090565b6000600c60009054906101000a900473ffffffffffffffffffffffffffffffffffffffff16905081600c60006101000a81548173ffffffffffffffffffffffffffffffffffffffff021916908373ffffffffffffffffffffffffffffffffffffffff1602179055508173ffffffffffffffffffffffffffffffffffffffff168173ffffffffffffffffffffffffffffffffffffffff167f8be0079c531659141344cd1fd0a4f28419497f9722a3daafe3b4186f6b6457e060405160405180910390a35050565b6200025d6200048560201b60201c565b600073ffffffffffffffffffffffffffffffffffffffff168173ffffffffffffffffffffffffffffffffffffffff1603620002cf576040517f08c379a0000000000000000000000000000000000000000000000000000000008152600401620002c69062000a6f565b60405180910390fd5b620002e0816200018760201b60201c565b50565b620002f36200051660201b60201c565b6bffffffffffffffffffffffff16816bffffffffffffffffffffffff16111562000354576040517f08c379a00000000000000000000000000000000000000000000000000000000081526004016200034b9062000b07565b60405180910390fd5b600073ffffffffffffffffffffffffffffffffffffffff168273ffffffffffffffffffffffffffffffffffffffff1603620003c6576040517f08c379a0000000000000000000000000000000000000000000000000000000008152600401620003bd9062000b79565b60405180910390fd5b60405180604001604052808373ffffffffffffffffffffffffffffffffffffffff168152602001826bffffffffffffffffffffffff168152506000808201518160000160006101000a81548173ffffffffffffffffffffffffffffffffffffffff021916908373ffffffffffffffffffffffffffffffffffffffff16021790555060208201518160000160146101000a8154816bffffffffffffffffffffffff02191690836bffffffffffffffffffffffff1602179055509050505050565b620004956200017f60201b60201c565b73ffffffffffffffffffffffffffffffffffffffff16620004bb6200052060201b60201c565b73ffffffffffffffffffffffffffffffffffffffff161462000514576040517f08c379a00000000000000000000000000000000000000000000000000000000081526004016200050b9062000beb565b60405180910390fd5b565b6000612710905090565b6000600c60009054906101000a900473ffffffffffffffffffffffffffffffffffffffff16905090565b600080fd5b600073ffffffffffffffffffffffffffffffffffffffff82169050919050565b60006200057c826200054f565b9050919050565b6200058e816200056f565b81146200059a57600080fd5b50565b600081519050620005ae8162000583565b92915050565b6000819050919050565b620005c981620005b4565b8114620005d557600080fd5b50565b600081519050620005e981620005be565b92915050565b6000806000606084860312156200060b576200060a6200054a565b5b60006200061b868287016200059d565b93505060206200062e86828701620005d8565b92505060406200064186828701620005d8565b9150509250925092565b600081519050919050565b7f4e487b7100000000000000000000000000000000000000000000000000000000600052604160045260246000fd5b7f4e487b7100000000000000000000000000000000000000000000000000000000600052602260045260246000fd5b60006002820490506001821680620006cd57607f821691505b602082108103620006e357620006e262000685565b5b50919050565b60008190508160005260206000209050919050565b60006020601f8301049050919050565b600082821b905092915050565b6000600883026200074d7fffffffffffffffffffffffffffffffffffffffffffffffffffffffffffffffff826200070e565b6200075986836200070e565b95508019841693508086168417925050509392505050565b6000819050919050565b60006200079c620007966200079084620005b4565b62000771565b620005b4565b9050919050565b6000819050919050565b620007b8836200077b565b620007d0620007c782620007a3565b8484546200071b565b825550505050565b600090565b620007e7620007d8565b620007f4818484620007ad565b505050565b5b818110156200081c5762000810600082620007dd565b600181019050620007fa565b5050565b601f8211156200086b576200083581620006e9565b6200084084620006fe565b8101602085101562000850578190505b620008686200085f85620006fe565b830182620007f9565b50505b505050565b600082821c905092915050565b6000620008906000198460080262000870565b1980831691505092915050565b6000620008ab83836200087d565b9150826002028217905092915050565b620008c6826200064b565b67ffffffffffffffff811115620008e257620008e162000656565b5b620008ee8254620006b4565b620008fb82828562000820565b600060209050601f8311600181146200093357600084156200091e578287015190505b6200092a85826200089d565b8655506200099a565b601f1984166200094386620006e9565b60005b828110156200096d5784890151825560018201915060208501945060208101905062000946565b868310156200098d578489015162000989601f8916826200087d565b8355505b6001600288020188555050505b505050505050565b60006bffffffffffffffffffffffff82169050919050565b620009c581620009a2565b82525050565b6000602082019050620009e26000830184620009ba565b92915050565b600082825260208201905092915050565b7f4f776e61626c653a206e6577206f776e657220697320746865207a65726f206160008201527f6464726573730000000000000000000000000000000000000000000000000000602082015250565b600062000a57602683620009e8565b915062000a6482620009f9565b604082019050919050565b6000602082019050818103600083015262000a8a8162000a48565b9050919050565b7f455243323938313a20726f79616c7479206665652077696c6c2065786365656460008201527f2073616c65507269636500000000000000000000000000000000000000000000602082015250565b600062000aef602a83620009e8565b915062000afc8262000a91565b604082019050919050565b6000602082019050818103600083015262000b228162000ae0565b9050919050565b7f455243323938313a20696e76616c696420726563656976657200000000000000600082015250565b600062000b61601983620009e8565b915062000b6e8262000b29565b602082019050919050565b6000602082019050818103600083015262000b948162000b52565b9050919050565b7f4f776e61626c653a2063616c6c6572206973206e6f7420746865206f776e6572600082015250565b600062000bd3602083620009e8565b915062000be08262000b9b565b602082019050919050565b6000602082019050818103600083015262000c068162000bc4565b9050919050565b61464b8062000c1d6000396000f3fe6080604052600436106101ee5760003560e01c80636817c76c1161010d578063b88d4fde116100a0578063e8a3d4851161006f578063e8a3d48514610717578063e985e9c514610742578063ed9ec8881461077f578063f2fde38b146107bc578063f4a0a528146107e5576101ee565b8063b88d4fde14610656578063c87b56dd1461067f578063d0def521146106bc578063d5abeb01146106ec576101ee565b80638da5cb5b116100dc5780638da5cb5b146105ae578063938e3d7b146105d957806395d89b4114610602578063a22cb4651461062d576101ee565b80636817c76c146105065780636f8b44b01461053157806370a082311461055a578063715018a614610597576101ee565b80632a55205a1161018557806342842e0e1161015457806342842e0e146104385780634f6ccce7146104615780635b1ab4341461049e5780636352211e146104c9576101ee565b80632a55205a146103695780632f745c59146103a757806338e21cce146103e45780633ccfd60b14610421576101ee565b8063095ea7b3116101c1578063095ea7b3146102c157806312065fe0146102ea57806318160ddd1461031557806323b872dd14610340576101ee565b806301ffc9a7146101f357806304634d8d1461023057806306fdde0314610259578063081812fc14610284575b600080fd5b3480156101ff57600080fd5b5061021a60048036038101906102159190612dee565b61080e565b6040516102279190612e36565b60405180910390f35b34801561023c57600080fd5b5061025760048036038101906102529190612ef3565b610820565b005b34801561026557600080fd5b5061026e610884565b60405161027b9190612fc3565b60405180910390f35b34801561029057600080fd5b506102ab60048036038101906102a6919061301b565b610916565b6040516102b89190613057565b60405180910390f35b3480156102cd57600080fd5b506102e860048036038101906102e39190613072565b61095c565b005b3480156102f657600080fd5b506102ff610a73565b60405161030c91906130c1565b60405180910390f35b34801561032157600080fd5b5061032a610a7b565b60405161033791906130c1565b60405180910390f35b34801561034c57600080fd5b50610367600480360381019061036291906130dc565b610a88565b005b34801561037557600080fd5b50610390600480360381019061038b919061312f565b610ae8565b60405161039e92919061316f565b60405180910390f35b3480156103b357600080fd5b506103ce60048036038101906103c99190613072565b610cd2565b6040516103db91906130c1565b60405180910390f35b3480156103f057600080fd5b5061040b60048036038101906104069190613198565b610d77565b6040516104189190612e36565b60405180910390f35b34801561042d57600080fd5b50610436610dc2565b005b34801561044457600080fd5b5061045f600480360381019061045a91906130dc565b610f1e565b005b34801561046d57600080fd5b506104886004803603810190610483919061301b565b610f3e565b60405161049591906130c1565b60405180910390f35b3480156104aa57600080fd5b506104b3610faf565b6040516104c091906131d4565b60405180910390f35b3480156104d557600080fd5b506104f060048036038101906104eb919061301b565b610fb5565b6040516104fd9190613057565b60405180910390f35b34801561051257600080fd5b5061051b61103b565b60405161052891906130c1565b60405180910390f35b34801561053d57600080fd5b506105586004803603810190610553919061301b565b611041565b005b34801561056657600080fd5b50610581600480360381019061057c9190613198565b6110cb565b60405161058e91906130c1565b60405180910390f35b3480156105a357600080fd5b506105ac611182565b005b3480156105ba57600080fd5b506105c3611196565b6040516105d09190613057565b60405180910390f35b3480156105e557600080fd5b5061060060048036038101906105fb9190613324565b6111c0565b005b34801561060e57600080fd5b50610617611212565b6040516106249190612fc3565b60405180910390f35b34801561063957600080fd5b50610654600480360381019061064f9190613399565b6112a4565b005b34801561066257600080fd5b5061067d6004803603810190610678919061347a565b6112ba565b005b34801561068b57600080fd5b506106a660048036038101906106a1919061301b565b61131c565b6040516106b39190612fc3565b60405180910390f35b6106d660048036038101906106d191906134fd565b611409565b6040516106e391906130c1565b60405180910390f35b3480156106f857600080fd5b5061070161169c565b60405161070e91906130c1565b60405180910390f35b34801561072357600080fd5b5061072c6116a2565b6040516107399190612fc3565b60405180910390f35b34801561074e57600080fd5b5061076960048036038101906107649190613559565b611734565b6040516107769190612e36565b60405180910390f35b34801561078b57600080fd5b506107a660048036038101906107a19190613198565b6117c8565b6040516107b391906130c1565b60405180910390f35b3480156107c857600080fd5b506107e360048036038101906107de9190613198565b6117e0565b005b3480156107f157600080fd5b5061080c6004803603810190610807919061301b565b611863565b005b6000610819826118ac565b9050919050565b6108286118be565b610832828261193c565b8173ffffffffffffffffffffffffffffffffffffffff167f8a8bae378cb731c5c40b632330c6836c2f916f48edb967699c86736f9a6a76ef8260405161087891906131d4565b60405180910390a25050565b606060028054610893906135c8565b80601f01602080910402602001604051908101604052809291908181526020018280546108bf906135c8565b801561090c5780601f106108e15761010080835404028352916020019161090c565b820191906000526020600020905b8154815290600101906020018083116108ef57829003601f168201915b5050505050905090565b600061092182611ad0565b6006600083815260200190815260200160002060009054906101000a900473ffffffffffffffffffffffffffffffffffffffff169050919050565b600061096782610fb5565b90508073ffffffffffffffffffffffffffffffffffffffff168373ffffffffffffffffffffffffffffffffffffffff16036109d7576040517f08c379a00000000000000000000000000000000000000000000000000000000081526004016109ce9061366b565b60405180910390fd5b8073ffffffffffffffffffffffffffffffffffffffff166109f6611b1b565b73ffffffffffffffffffffffffffffffffffffffff161480610a255750610a2481610a1f611b1b565b611734565b5b610a64576040517f08c379a0000000000000000000000000000000000000000000000000000000008152600401610a5b906136fd565b60405180910390fd5b610a6e8383611b23565b505050565b600047905090565b6000600a80549050905090565b610a99610a93611b1b565b82611bdc565b610ad8576040517f08c379a0000000000000000000000000000000000000000000000000000000008152600401610acf9061378f565b60405180910390fd5b610ae3838383611c71565b505050565b6000806000600160008681526020019081526020016000206040518060400160405290816000820160009054906101000a900473ffffffffffffffffffffffffffffffffffffffff1673ffffffffffffffffffffffffffffffffffffffff1673ffffffffffffffffffffffffffffffffffffffff1681526020016000820160149054906101000a90046bffffffffffffffffffffffff166bffffffffffffffffffffffff166bffffffffffffffffffffffff16815250509050600073ffffffffffffffffffffffffffffffffffffffff16816000015173ffffffffffffffffffffffffffffffffffffffff1603610c7d5760006040518060400160405290816000820160009054906101000a900473ffffffffffffffffffffffffffffffffffffffff1673ffffffffffffffffffffffffffffffffffffffff1673ffffffffffffffffffffffffffffffffffffffff1681526020016000820160149054906101000a90046bffffffffffffffffffffffff166bffffffffffffffffffffffff166bffffffffffffffffffffffff168152505090505b6000610c87611f6a565b6bffffffffffffffffffffffff1682602001516bffffffffffffffffffffffff1686610cb391906137de565b610cbd919061384f565b90508160000151819350935050509250929050565b6000610cdd836110cb565b8210610d1e576040517f08c379a0000000000000000000000000000000000000000000000000000000008152600401610d15906138f2565b60405180910390fd5b600860008473ffffffffffffffffffffffffffffffffffffffff1673ffffffffffffffffffffffffffffffffffffffff168152602001908152602001600020600083815260200190815260200160002054905092915050565b600080601060008473ffffffffffffffffffffffffffffffffffffffff1673ffffffffffffffffffffffffffffffffffffffff16815260200190815260200160002054119050919050565b610dca6118be565b600047905060008111610e12576040517f08c379a0000000000000000000000000000000000000000000000000000000008152600401610e099061395e565b60405180910390fd5b6000610e1c611196565b73ffffffffffffffffffffffffffffffffffffffff1682604051610e3f906139af565b60006040518083038185875af1925050503d8060008114610e7c576040519150601f19603f3d011682016040523d82523d6000602084013e610e81565b606091505b5050905080610ec5576040517f08c379a0000000000000000000000000000000000000000000000000000000008152600401610ebc90613a10565b60405180910390fd5b610ecd611196565b73ffffffffffffffffffffffffffffffffffffffff167feaff4b37086828766ad3268786972c0cd24259d4c87a80f9d3963a3c3d999b0d83604051610f1291906130c1565b60405180910390a25050565b610f39838383604051806020016040528060008152506112ba565b505050565b6000610f48610a7b565b8210610f89576040517f08c379a0000000000000000000000000000000000000000000000000000000008152600401610f8090613aa2565b60405180910390fd5b600a8281548110610f9d57610f9c613ac2565b5b90600052602060002001549050919050565b6101f481565b600080610fc183611f74565b9050600073ffffffffffffffffffffffffffffffffffffffff168173ffffffffffffffffffffffffffffffffffffffff1603611032576040517f08c379a000000000000000000000000000000000000000000000000000000000815260040161102990613b3d565b60405180910390fd5b80915050919050565b600e5481565b6110496118be565b611051610a7b565b81101561108a576040517f19bcc14c00000000000000000000000000000000000000000000000000000000815260040160405180910390fd5b80600f819055507f7810bd47de260c3e9ee10061cf438099dd12256c79485f12f94dbccc981e806c816040516110c091906130c1565b60405180910390a150565b60008073ffffffffffffffffffffffffffffffffffffffff168273ffffffffffffffffffffffffffffffffffffffff160361113b576040517f08c379a000000000000000000000000000000000000000000000000000000000815260040161113290613bcf565b60405180910390fd5b600560008373ffffffffffffffffffffffffffffffffffffffff1673ffffffffffffffffffffffffffffffffffffffff168152602001908152602001600020549050919050565b61118a6118be565b6111946000611fb1565b565b6000600c60009054906101000a900473ffffffffffffffffffffffffffffffffffffffff16905090565b6111c86118be565b80601290816111d79190613d9b565b507f905d981207a7d0b6c62cc46ab0be2a076d0298e4a86d0ab79882dbd01ac37378816040516112079190612fc3565b60405180910390a150565b606060038054611221906135c8565b80601f016020809104026020016040519081016040528092919081815260200182805461124d906135c8565b801561129a5780601f1061126f5761010080835404028352916020019161129a565b820191906000526020600020905b81548152906001019060200180831161127d57829003601f168201915b5050505050905090565b6112b66112af611b1b565b8383612077565b5050565b6112cb6112c5611b1b565b83611bdc565b61130a576040517f08c379a00000000000000000000000000000000000000000000000000000000081526004016113019061378f565b60405180910390fd5b611316848484846121e3565b50505050565b60606113278261223f565b611366576040517f08c379a000000000000000000000000000000000000000000000000000000000815260040161135d90613edf565b60405180910390fd5b601160008381526020019081526020016000208054611384906135c8565b80601f01602080910402602001604051908101604052809291908181526020018280546113b0906135c8565b80156113fd5780601f106113d2576101008083540402835291602001916113fd565b820191906000526020600020905b8154815290600101906020018083116113e057829003601f168201915b50505050509050919050565b6000600f54611416610a7b565b1061144d576040517f8a164f6300000000000000000000000000000000000000000000000000000000815260040160405180910390fd5b600e54341015611489576040517fcd1c886700000000000000000000000000000000000000000000000000000000815260040160405180910390fd5b600073ffffffffffffffffffffffffffffffffffffffff168373ffffffffffffffffffffffffffffffffffffffff16036114ef576040517f9c8d2cd200000000000000000000000000000000000000000000000000000000815260040160405180910390fd5b600082510361152a576040517f251c1d8200000000000000000000000000000000000000000000000000000000815260040160405180910390fd5b6000601060008573ffffffffffffffffffffffffffffffffffffffff1673ffffffffffffffffffffffffffffffffffffffff1681526020019081526020016000205411156115a4576040517fddefae2800000000000000000000000000000000000000000000000000000000815260040160405180910390fd5b6000600d549050600d60008154809291906115be90613eff565b91905055506115cd8482612280565b826011600083815260200190815260200160002090816115ed9190613d9b565b50601060008573ffffffffffffffffffffffffffffffffffffffff1673ffffffffffffffffffffffffffffffffffffffff168152602001908152602001600020600081548092919061163e90613eff565b9190505550808473ffffffffffffffffffffffffffffffffffffffff167fd35bb95e09c04b219e35047ce7b7b300e3384264ef84a40456943dbc0fc17c148560405161168a9190612fc3565b60405180910390a38091505092915050565b600f5481565b6060601280546116b1906135c8565b80601f01602080910402602001604051908101604052809291908181526020018280546116dd906135c8565b801561172a5780601f106116ff5761010080835404028352916020019161172a565b820191906000526020600020905b81548152906001019060200180831161170d57829003601f168201915b5050505050905090565b6000600760008473ffffffffffffffffffffffffffffffffffffffff1673ffffffffffffffffffffffffffffffffffffffff16815260200190815260200160002060008373ffffffffffffffffffffffffffffffffffffffff1673ffffffffffffffffffffffffffffffffffffffff16815260200190815260200160002060009054906101000a900460ff16905092915050565b60106020528060005260406000206000915090505481565b6117e86118be565b600073ffffffffffffffffffffffffffffffffffffffff168173ffffffffffffffffffffffffffffffffffffffff1603611857576040517f08c379a000000000000000000000000000000000000000000000000000000000815260040161184e90613fb9565b60405180910390fd5b61186081611fb1565b50565b61186b6118be565b80600e819055507f525b762709cc2a983aec5ccdfd807a061f993c91090b5bcd7da92ca254976aaa816040516118a191906130c1565b60405180910390a150565b60006118b78261229e565b9050919050565b6118c6611b1b565b73ffffffffffffffffffffffffffffffffffffffff166118e4611196565b73ffffffffffffffffffffffffffffffffffffffff161461193a576040517f08c379a000000000000000000000000000000000000000000000000000000000815260040161193190614025565b60405180910390fd5b565b611944611f6a565b6bffffffffffffffffffffffff16816bffffffffffffffffffffffff1611156119a2576040517f08c379a0000000000000000000000000000000000000000000000000000000008152600401611999906140b7565b60405180910390fd5b600073ffffffffffffffffffffffffffffffffffffffff168273ffffffffffffffffffffffffffffffffffffffff1603611a11576040517f08c379a0000000000000000000000000000000000000000000000000000000008152600401611a0890614123565b60405180910390fd5b60405180604001604052808373ffffffffffffffffffffffffffffffffffffffff168152602001826bffffffffffffffffffffffff168152506000808201518160000160006101000a81548173ffffffffffffffffffffffffffffffffffffffff021916908373ffffffffffffffffffffffffffffffffffffffff16021790555060208201518160000160146101000a8154816bffffffffffffffffffffffff02191690836bffffffffffffffffffffffff1602179055509050505050565b611ad98161223f565b611b18576040517f08c379a0000000000000000000000000000000000000000000000000000000008152600401611b0f90613b3d565b60405180910390fd5b50565b600033905090565b816006600083815260200190815260200160002060006101000a81548173ffffffffffffffffffffffffffffffffffffffff021916908373ffffffffffffffffffffffffffffffffffffffff160217905550808273ffffffffffffffffffffffffffffffffffffffff16611b9683610fb5565b73ffffffffffffffffffffffffffffffffffffffff167f8c5be1e5ebec7d5bd14f71427d1e84f3dd0314c0f7b2291e5b200ac8c7c3b92560405160405180910390a45050565b600080611be883610fb5565b90508073ffffffffffffffffffffffffffffffffffffffff168473ffffffffffffffffffffffffffffffffffffffff161480611c2a5750611c298185611734565b5b80611c6857508373ffffffffffffffffffffffffffffffffffffffff16611c5084610916565b73ffffffffffffffffffffffffffffffffffffffff16145b91505092915050565b8273ffffffffffffffffffffffffffffffffffffffff16611c9182610fb5565b73ffffffffffffffffffffffffffffffffffffffff1614611ce7576040517f08c379a0000000000000000000000000000000000000000000000000000000008152600401611cde906141b5565b60405180910390fd5b600073ffffffffffffffffffffffffffffffffffffffff168273ffffffffffffffffffffffffffffffffffffffff1603611d56576040517f08c379a0000000000000000000000000000000000000000000000000000000008152600401611d4d90614247565b60405180910390fd5b611d638383836001612318565b8273ffffffffffffffffffffffffffffffffffffffff16611d8382610fb5565b73ffffffffffffffffffffffffffffffffffffffff1614611dd9576040517f08c379a0000000000000000000000000000000000000000000000000000000008152600401611dd0906141b5565b60405180910390fd5b6006600082815260200190815260200160002060006101000a81549073ffffffffffffffffffffffffffffffffffffffff02191690556001600560008573ffffffffffffffffffffffffffffffffffffffff1673ffffffffffffffffffffffffffffffffffffffff168152602001908152602001600020600082825403925050819055506001600560008473ffffffffffffffffffffffffffffffffffffffff1673ffffffffffffffffffffffffffffffffffffffff16815260200190815260200160002060008282540192505081905550816004600083815260200190815260200160002060006101000a81548173ffffffffffffffffffffffffffffffffffffffff021916908373ffffffffffffffffffffffffffffffffffffffff160217905550808273ffffffffffffffffffffffffffffffffffffffff168473ffffffffffffffffffffffffffffffffffffffff167fddf252ad1be2c89b69c2b068fc378daa952ba7f163c4a11628f55a4df523b3ef60405160405180910390a4611f65838383600161232a565b505050565b6000612710905090565b60006004600083815260200190815260200160002060009054906101000a900473ffffffffffffffffffffffffffffffffffffffff169050919050565b6000600c60009054906101000a900473ffffffffffffffffffffffffffffffffffffffff16905081600c60006101000a81548173ffffffffffffffffffffffffffffffffffffffff021916908373ffffffffffffffffffffffffffffffffffffffff1602179055508173ffffffffffffffffffffffffffffffffffffffff168173ffffffffffffffffffffffffffffffffffffffff167f8be0079c531659141344cd1fd0a4f28419497f9722a3daafe3b4186f6b6457e060405160405180910390a35050565b8173ffffffffffffffffffffffffffffffffffffffff168373ffffffffffffffffffffffffffffffffffffffff16036120e5576040517f08c379a00000000000000000000000000000000000000000000000000000000081526004016120dc906142b3565b60405180910390fd5b80600760008573ffffffffffffffffffffffffffffffffffffffff1673ffffffffffffffffffffffffffffffffffffffff16815260200190815260200160002060008473ffffffffffffffffffffffffffffffffffffffff1673ffffffffffffffffffffffffffffffffffffffff16815260200190815260200160002060006101000a81548160ff0219169083151502179055508173ffffffffffffffffffffffffffffffffffffffff168373ffffffffffffffffffffffffffffffffffffffff167f17307eab39ab6107e8899845ad3d59bd9653f200f220920489ca2b5937696c31836040516121d69190612e36565b60405180910390a3505050565b6121ee848484611c71565b6121fa84848484612330565b612239576040517f08c379a000000000000000000000000000000000000000000000000000000000815260040161223090614345565b60405180910390fd5b50505050565b60008073ffffffffffffffffffffffffffffffffffffffff1661226183611f74565b73ffffffffffffffffffffffffffffffffffffffff1614159050919050565b61229a8282604051806020016040528060008152506124b7565b5050565b60007f780e9d63000000000000000000000000000000000000000000000000000000007bffffffffffffffffffffffffffffffffffffffffffffffffffffffff1916827bffffffffffffffffffffffffffffffffffffffffffffffffffffffff19161480612311575061231082612512565b5b9050919050565b612324848484846125f4565b50505050565b50505050565b60006123518473ffffffffffffffffffffffffffffffffffffffff16612752565b156124aa578373ffffffffffffffffffffffffffffffffffffffff1663150b7a0261237a611b1b565b8786866040518563ffffffff1660e01b815260040161239c94939291906143ba565b6020604051808303816000875af19250505080156123d857506040513d601f19601f820116820180604052508101906123d5919061441b565b60015b61245a573d8060008114612408576040519150601f19603f3d011682016040523d82523d6000602084013e61240d565b606091505b506000815103612452576040517f08c379a000000000000000000000000000000000000000000000000000000000815260040161244990614345565b60405180910390fd5b805181602001fd5b63150b7a0260e01b7bffffffffffffffffffffffffffffffffffffffffffffffffffffffff1916817bffffffffffffffffffffffffffffffffffffffffffffffffffffffff1916149150506124af565b600190505b949350505050565b6124c18383612775565b6124ce6000848484612330565b61250d576040517f08c379a000000000000000000000000000000000000000000000000000000000815260040161250490614345565b60405180910390fd5b505050565b60007f80ac58cd000000000000000000000000000000000000000000000000000000007bffffffffffffffffffffffffffffffffffffffffffffffffffffffff1916827bffffffffffffffffffffffffffffffffffffffffffffffffffffffff191614806125dd57507f5b5e139f000000000000000000000000000000000000000000000000000000007bffffffffffffffffffffffffffffffffffffffffffffffffffffffff1916827bffffffffffffffffffffffffffffffffffffffffffffffffffffffff1916145b806125ed57506125ec82612992565b5b9050919050565b61260084848484612a0c565b6001811115612644576040517f08c379a000000000000000000000000000000000000000000000000000000000815260040161263b906144ba565b60405180910390fd5b6000829050600073ffffffffffffffffffffffffffffffffffffffff168573ffffffffffffffffffffffffffffffffffffffff160361268b5761268681612a12565b6126ca565b8373ffffffffffffffffffffffffffffffffffffffff168573ffffffffffffffffffffffffffffffffffffffff16146126c9576126c88582612a5b565b5b5b600073ffffffffffffffffffffffffffffffffffffffff168473ffffffffffffffffffffffffffffffffffffffff160361270c5761270781612bc8565b61274b565b8473ffffffffffffffffffffffffffffffffffffffff168473ffffffffffffffffffffffffffffffffffffffff161461274a576127498482612c99565b5b5b5050505050565b6000808273ffffffffffffffffffffffffffffffffffffffff163b119050919050565b600073ffffffffffffffffffffffffffffffffffffffff168273ffffffffffffffffffffffffffffffffffffffff16036127e4576040517f08c379a00000000000000000000000000000000000000000000000000000000081526004016127db90614526565b60405180910390fd5b6127ed8161223f565b1561282d576040517f08c379a000000000000000000000000000000000000000000000000000000000815260040161282490614592565b60405180910390fd5b61283b600083836001612318565b6128448161223f565b15612884576040517f08c379a000000000000000000000000000000000000000000000000000000000815260040161287b90614592565b60405180910390fd5b6001600560008473ffffffffffffffffffffffffffffffffffffffff1673ffffffffffffffffffffffffffffffffffffffff16815260200190815260200160002060008282540192505081905550816004600083815260200190815260200160002060006101000a81548173ffffffffffffffffffffffffffffffffffffffff021916908373ffffffffffffffffffffffffffffffffffffffff160217905550808273ffffffffffffffffffffffffffffffffffffffff16600073ffffffffffffffffffffffffffffffffffffffff167fddf252ad1be2c89b69c2b068fc378daa952ba7f163c4a11628f55a4df523b3ef60405160405180910390a461298e60008383600161232a565b5050565b60007f2a55205a000000000000000000000000000000000000000000000000000000007bffffffffffffffffffffffffffffffffffffffffffffffffffffffff1916827bffffffffffffffffffffffffffffffffffffffffffffffffffffffff19161480612a055750612a0482612d18565b5b9050919050565b50505050565b600a80549050600b600083815260200190815260200160002081905550600a81908060018154018082558091505060019003906000526020600020016000909190919091505550565b60006001612a68846110cb565b612a7291906145b2565b9050600060096000848152602001908152602001600020549050818114612b57576000600860008673ffffffffffffffffffffffffffffffffffffffff1673ffffffffffffffffffffffffffffffffffffffff168152602001908152602001600020600084815260200190815260200160002054905080600860008773ffffffffffffffffffffffffffffffffffffffff1673ffffffffffffffffffffffffffffffffffffffff168152602001908152602001600020600084815260200190815260200160002081905550816009600083815260200190815260200160002081905550505b6009600084815260200190815260200160002060009055600860008573ffffffffffffffffffffffffffffffffffffffff1673ffffffffffffffffffffffffffffffffffffffff16815260200190815260200160002060008381526020019081526020016000206000905550505050565b60006001600a80549050612bdc91906145b2565b90506000600b60008481526020019081526020016000205490506000600a8381548110612c0c57612c0b613ac2565b5b9060005260206000200154905080600a8381548110612c2e57612c2d613ac2565b5b906000526020600020018190555081600b600083815260200190815260200160002081905550600b600085815260200190815260200160002060009055600a805480612c7d57612c7c6145e6565b5b6001900381819060005260206000200160009055905550505050565b6000612ca4836110cb565b905081600860008573ffffffffffffffffffffffffffffffffffffffff1673ffffffffffffffffffffffffffffffffffffffff168152602001908152602001600020600083815260200190815260200160002081905550806009600084815260200190815260200160002081905550505050565b60007f01ffc9a7000000000000000000000000000000000000000000000000000000007bffffffffffffffffffffffffffffffffffffffffffffffffffffffff1916827bffffffffffffffffffffffffffffffffffffffffffffffffffffffff1916149050919050565b6000604051905090565b600080fd5b600080fd5b60007fffffffff0000000000000000000000000000000000000000000000000000000082169050919050565b612dcb81612d96565b8114612dd657600080fd5b50565b600081359050612de881612dc2565b92915050565b600060208284031215612e0457612e03612d8c565b5b6000612e1284828501612dd9565b91505092915050565b60008115159050919050565b612e3081612e1b565b82525050565b6000602082019050612e4b6000830184612e27565b92915050565b600073ffffffffffffffffffffffffffffffffffffffff82169050919050565b6000612e7c82612e51565b9050919050565b612e8c81612e71565b8114612e9757600080fd5b50565b600081359050612ea981612e83565b92915050565b60006bffffffffffffffffffffffff82169050919050565b612ed081612eaf565b8114612edb57600080fd5b50565b600081359050612eed81612ec7565b92915050565b60008060408385031215612f0a57612f09612d8c565b5b6000612f1885828601612e9a565b9250506020612f2985828601612ede565b9150509250929050565b600081519050919050565b600082825260208201905092915050565b60005b83811015612f6d578082015181840152602081019050612f52565b60008484015250505050565b6000601f19601f8301169050919050565b6000612f9582612f33565b612f9f8185612f3e565b9350612faf818560208601612f4f565b612fb881612f79565b840191505092915050565b60006020820190508181036000830152612fdd8184612f8a565b905092915050565b6000819050919050565b612ff881612fe5565b811461300357600080fd5b50565b60008135905061301581612fef565b92915050565b60006020828403121561303157613030612d8c565b5b600061303f84828501613006565b91505092915050565b61305181612e71565b82525050565b600060208201905061306c6000830184613048565b92915050565b6000806040838503121561308957613088612d8c565b5b600061309785828601612e9a565b92505060206130a885828601613006565b9150509250929050565b6130bb81612fe5565b82525050565b60006020820190506130d660008301846130b2565b92915050565b6000806000606084860312156130f5576130f4612d8c565b5b600061310386828701612e9a565b935050602061311486828701612e9a565b925050604061312586828701613006565b9150509250925092565b6000806040838503121561314657613145612d8c565b5b600061315485828601613006565b925050602061316585828601613006565b9150509250929050565b60006040820190506131846000830185613048565b61319160208301846130b2565b9392505050565b6000602082840312156131ae576131ad612d8c565b5b60006131bc84828501612e9a565b91505092915050565b6131ce81612eaf565b82525050565b60006020820190506131e960008301846131c5565b92915050565b600080fd5b600080fd5b7f4e487b7100000000000000000000000000000000000000000000000000000000600052604160045260246000fd5b61323182612f79565b810181811067ffffffffffffffff821117156132505761324f6131f9565b5b80604052505050565b6000613263612d82565b905061326f8282613228565b919050565b600067ffffffffffffffff82111561328f5761328e6131f9565b5b61329882612f79565b9050602081019050919050565b82818337600083830152505050565b60006132c76132c284613274565b613259565b9050828152602081018484840111156132e3576132e26131f4565b5b6132ee8482856132a5565b509392505050565b600082601f83011261330b5761330a6131ef565b5b813561331b8482602086016132b4565b91505092915050565b60006020828403121561333a57613339612d8c565b5b600082013567ffffffffffffffff81111561335857613357612d91565b5b613364848285016132f6565b91505092915050565b61337681612e1b565b811461338157600080fd5b50565b6000813590506133938161336d565b92915050565b600080604083850312156133b0576133af612d8c565b5b60006133be85828601612e9a565b92505060206133cf85828601613384565b9150509250929050565b600067ffffffffffffffff8211156133f4576133f36131f9565b5b6133fd82612f79565b9050602081019050919050565b600061341d613418846133d9565b613259565b905082815260208101848484011115613439576134386131f4565b5b6134448482856132a5565b509392505050565b600082601f830112613461576134606131ef565b5b813561347184826020860161340a565b91505092915050565b6000806000806080858703121561349457613493612d8c565b5b60006134a287828801612e9a565b94505060206134b387828801612e9a565b93505060406134c487828801613006565b925050606085013567ffffffffffffffff8111156134e5576134e4612d91565b5b6134f18782880161344c565b91505092959194509250565b6000806040838503121561351457613513612d8c565b5b600061352285828601612e9a565b925050602083013567ffffffffffffffff81111561354357613542612d91565b5b61354f858286016132f6565b9150509250929050565b600080604083850312156135705761356f612d8c565b5b600061357e85828601612e9a565b925050602061358f85828601612e9a565b9150509250929050565b7f4e487b7100000000000000000000000000000000000000000000000000000000600052602260045260246000fd5b600060028204905060018216806135e057607f821691505b6020821081036135f3576135f2613599565b5b50919050565b7f4552433732313a20617070726f76616c20746f2063757272656e74206f776e6560008201527f7200000000000000000000000000000000000000000000000000000000000000602082015250565b6000613655602183612f3e565b9150613660826135f9565b604082019050919050565b6000602082019050818103600083015261368481613648565b9050919050565b7f4552433732313a20617070726f76652063616c6c6572206973206e6f7420746f60008201527f6b656e206f776e6572206f7220617070726f76656420666f7220616c6c000000602082015250565b60006136e7603d83612f3e565b91506136f28261368b565b604082019050919050565b60006020820190508181036000830152613716816136da565b9050919050565b7f4552433732313a2063616c6c6572206973206e6f7420746f6b656e206f776e6560008201527f72206f7220617070726f76656400000000000000000000000000000000000000602082015250565b6000613779602d83612f3e565b91506137848261371d565b604082019050919050565b600060208201905081810360008301526137a88161376c565b9050919050565b7f4e487b7100000000000000000000000000000000000000000000000000000000600052601160045260246000fd5b60006137e982612fe5565b91506137f483612fe5565b925082820261380281612fe5565b91508282048414831517613819576138186137af565b5b5092915050565b7f4e487b7100000000000000000000000000000000000000000000000000000000600052601260045260246000fd5b600061385a82612fe5565b915061386583612fe5565b92508261387557613874613820565b5b828204905092915050565b7f455243373231456e756d657261626c653a206f776e657220696e646578206f7560008201527f74206f6620626f756e6473000000000000000000000000000000000000000000602082015250565b60006138dc602b83612f3e565b91506138e782613880565b604082019050919050565b6000602082019050818103600083015261390b816138cf565b9050919050565b7f4e6f2066756e647320746f207769746864726177000000000000000000000000600082015250565b6000613948601483612f3e565b915061395382613912565b602082019050919050565b600060208201905081810360008301526139778161393b565b9050919050565b600081905092915050565b50565b600061399960008361397e565b91506139a482613989565b600082019050919050565b60006139ba8261398c565b9150819050919050565b7f5769746864726177616c206661696c6564000000000000000000000000000000600082015250565b60006139fa601183612f3e565b9150613a05826139c4565b602082019050919050565b60006020820190508181036000830152613a29816139ed565b9050919050565b7f455243373231456e756d657261626c653a20676c6f62616c20696e646578206f60008201527f7574206f6620626f756e64730000000000000000000000000000000000000000602082015250565b6000613a8c602c83612f3e565b9150613a9782613a30565b604082019050919050565b60006020820190508181036000830152613abb81613a7f565b9050919050565b7f4e487b7100000000000000000000000000000000000000000000000000000000600052603260045260246000fd5b7f4552433732313a20696e76616c696420746f6b656e2049440000000000000000600082015250565b6000613b27601883612f3e565b9150613b3282613af1565b602082019050919050565b60006020820190508181036000830152613b5681613b1a565b9050919050565b7f4552433732313a2061646472657373207a65726f206973206e6f74206120766160008201527f6c6964206f776e65720000000000000000000000000000000000000000000000602082015250565b6000613bb9602983612f3e565b9150613bc482613b5d565b604082019050919050565b60006020820190508181036000830152613be881613bac565b9050919050565b60008190508160005260206000209050919050565b60006020601f8301049050919050565b600082821b905092915050565b600060088302613c517fffffffffffffffffffffffffffffffffffffffffffffffffffffffffffffffff82613c14565b613c5b8683613c14565b95508019841693508086168417925050509392505050565b6000819050919050565b6000613c98613c93613c8e84612fe5565b613c73565b612fe5565b9050919050565b6000819050919050565b613cb283613c7d565b613cc6613cbe82613c9f565b848454613c21565b825550505050565b600090565b613cdb613cce565b613ce6818484613ca9565b505050565b5b81811015613d0a57613cff600082613cd3565b600181019050613cec565b5050565b601f821115613d4f57613d2081613bef565b613d2984613c04565b81016020851015613d38578190505b613d4c613d4485613c04565b830182613ceb565b50505b505050565b600082821c905092915050565b6000613d7260001984600802613d54565b1980831691505092915050565b6000613d8b8383613d61565b9150826002028217905092915050565b613da482612f33565b67ffffffffffffffff811115613dbd57613dbc6131f9565b5b613dc782546135c8565b613dd2828285613d0e565b600060209050601f831160018114613e055760008415613df3578287015190505b613dfd8582613d7f565b865550613e65565b601f198416613e1386613bef565b60005b82811015613e3b57848901518255600182019150602085019450602081019050613e16565b86831015613e585784890151613e54601f891682613d61565b8355505b6001600288020188555050505b505050505050565b7f4552433732313a2055524920717565727920666f72206e6f6e6578697374656e60008201527f7420746f6b656e00000000000000000000000000000000000000000000000000602082015250565b6000613ec9602783612f3e565b9150613ed482613e6d565b604082019050919050565b60006020820190508181036000830152613ef881613ebc565b9050919050565b6000613f0a82612fe5565b91507fffffffffffffffffffffffffffffffffffffffffffffffffffffffffffffffff8203613f3c57613f3b6137af565b5b600182019050919050565b7f4f776e61626c653a206e6577206f776e657220697320746865207a65726f206160008201527f6464726573730000000000000000000000000000000000000000000000000000602082015250565b6000613fa3602683612f3e565b9150613fae82613f47565b604082019050919050565b60006020820190508181036000830152613fd281613f96565b9050919050565b7f4f776e61626c653a2063616c6c6572206973206e6f7420746865206f776e6572600082015250565b600061400f602083612f3e565b915061401a82613fd9565b602082019050919050565b6000602082019050818103600083015261403e81614002565b9050919050565b7f455243323938313a20726f79616c7479206665652077696c6c2065786365656460008201527f2073616c65507269636500000000000000000000000000000000000000000000602082015250565b60006140a1602a83612f3e565b91506140ac82614045565b604082019050919050565b600060208201905081810360008301526140d081614094565b9050919050565b7f455243323938313a20696e76616c696420726563656976657200000000000000600082015250565b600061410d601983612f3e565b9150614118826140d7565b602082019050919050565b6000602082019050818103600083015261413c81614100565b9050919050565b7f4552433732313a207472616e736665722066726f6d20696e636f72726563742060008201527f6f776e6572000000000000000000000000000000000000000000000000000000602082015250565b600061419f602583612f3e565b91506141aa82614143565b604082019050919050565b600060208201905081810360008301526141ce81614192565b9050919050565b7f4552433732313a207472616e7366657220746f20746865207a65726f2061646460008201527f7265737300000000000000000000000000000000000000000000000000000000602082015250565b6000614231602483612f3e565b915061423c826141d5565b604082019050919050565b6000602082019050818103600083015261426081614224565b9050919050565b7f4552433732313a20617070726f766520746f2063616c6c657200000000000000600082015250565b600061429d601983612f3e565b91506142a882614267565b602082019050919050565b600060208201905081810360008301526142cc81614290565b9050919050565b7f4552433732313a207472616e7366657220746f206e6f6e20455243373231526560008201527f63656976657220696d706c656d656e7465720000000000000000000000000000602082015250565b600061432f603283612f3e565b915061433a826142d3565b604082019050919050565b6000602082019050818103600083015261435e81614322565b9050919050565b600081519050919050565b600082825260208201905092915050565b600061438c82614365565b6143968185614370565b93506143a6818560208601612f4f565b6143af81612f79565b840191505092915050565b60006080820190506143cf6000830187613048565b6143dc6020830186613048565b6143e960408301856130b2565b81810360608301526143fb8184614381565b905095945050505050565b60008151905061441581612dc2565b92915050565b60006020828403121561443157614430612d8c565b5b600061443f84828501614406565b91505092915050565b7f455243373231456e756d657261626c653a20636f6e736563757469766520747260008201527f616e7366657273206e6f7420737570706f727465640000000000000000000000602082015250565b60006144a4603583612f3e565b91506144af82614448565b604082019050919050565b600060208201905081810360008301526144d381614497565b9050919050565b7f4552433732313a206d696e7420746f20746865207a65726f2061646472657373600082015250565b6000614510602083612f3e565b915061451b826144da565b602082019050919050565b6000602082019050818103600083015261453f81614503565b9050919050565b7f4552433732313a20746f6b656e20616c7265616479206d696e74656400000000600082015250565b600061457c601c83612f3e565b915061458782614546565b602082019050919050565b600060208201905081810360008301526145ab8161456f565b9050919050565b60006145bd82612fe5565b91506145c883612fe5565b92508282039050818111156145e0576145df6137af565b5b92915050565b7f4e487b7100000000000000000000000000000000000000000000000000000000600052603160045260246000fdfea2646970667358221220a42ec7d1567d729cf9a8234dc6dcde6dcaf11a0fab42db4463d69fc1e35ae5e564736f6c63430008140033",
  "linkReferences": {},
  "deployedLinkReferences": {}
}